:020000040800F2
:10000000684F00205D020008231D0008FB1A00084D
:10001000211D0008BD050008A921000800000000FE
:100020000000000000000000000000009D0100082A
:100030007D06000800000000F9010008251D0008E9
:1000400077020008770200087702000877020008AC
:10005000770200087702000877020008770200089C
:10006000770200087702000877020008770200088C
:10007000C10500087702000877020008770200082F
:10008000770200087702000877020008770200086C
:10009000770200087702000877020008770200085C
:1000A000770200087702000877020008770200084C
:1000B00077020008F51D00087702000877020008A3
:1000C000770200087702000877020008770200082C
:1000D0007702000877020008770200081D21000857
:1000E000770200087702000877020008770200080C
:1000F00077020008770200087702000877020008FC
:1001000077020008770200087702000877020008EB
:1001100077020008770200087702000877020008DB
:10012000CD05000877020008770200087702000872
:1001300077020008770200087702000877020008BB
:1001400077020008770200087702000877020008AB
:10015000770200087702000877020008770200089B
:10016000770200087702000877020008770200088B
:1001700077020008770200087702000800000000FC
:100180007702000877020008DFF80CD000F0ECF8E6
:1001900000480047B1220008684F00202C4B196826
:1001A0000868B0E8F04F80F30988BFF36F8F4FF015
:1001B000000080F3118870470000000008480068C4
:1001C000006880F308884FF0000080F3148862B65E
:1001D00061B6BFF34F8FBFF36F8F00DF00BF00BF6B
:1001E00008ED00E0DFF80C00016841F470010160E7
:1001F000704700BF88ED00E0EFF30980BFF36F8F19
:10020000134B1A681EF0100F08BF20ED108A20E96A
:10021000F04F106009B44FF0500080F31188BFF325
:100220004F8FBFF36F8F02F075FF4FF0000080F328
:10023000118809BC19680868B0E8F04F1EF0100F6B
:1002400008BFB0EC108A80F30988BFF36F8F704746
:1002500014000020EFF30580704700000648804737
:1002600006480047FEE7FEE7FEE7FEE7FEE7FEE79B
:10027000FEE7FEE7FEE7FEE7D91D0008890100085A
:100280002DE9F05F0546002092469B4688460646CB
:10029000814640241BE0284641464746224600F05E
:1002A00053F853465A46C01A914110D31146184686
:1002B000224600F03AF82D1A67EB01084F46224615
:1002C0000120002100F031F817EB00094E41201EFB
:1002D000A4F10104DFDC484631462A464346BDE826
:1002E000F09F40EA01039B0703D009E008C9121FF1
:1002F00008C0042AFAD203E011F8013B00F8013BE0
:10030000521EF9D27047D2B201E000F8012B491E0B
:10031000FBD270470022F6E710B513460A460446A2
:100320001946FFF7F0FF204610BD202A04DB203AD3
:1003300000FA02F1002070479140C2F1200320FA38
:1003400003F3194390407047202A04DB203A21FA36
:1003500002F00021704721FA02F3D040C2F12002DE
:100360009140084319467047064C074D06E0E06887
:1003700040F0010394E8070098471034AC42F6D3EC
:10038000FFF706FFD83B0008F83B000810B5014610
:10039000806B026C12F0500F05D0026CD20626D58D
:1003A00000F024FA10BD016C41F400710164016891
:1003B0008A6812F0405F17D1027EAAB9CA6A12F4A5
:1003C000700F02D08A6852050ED44A6822F02002CB
:1003D0004A60016C21F480710164016CC90403D48A
:1003E000016C41F00101016400F0FEF910BD806B69
:1003F000C26CBDE810400846104710B5806B402124
:100400000164416C41F00401416400F0EFF910BD5A
:1004100010B5806B00F0E9F910BD000010B51A4866
:1004200000212DED028B0160084600F02FF99FEDB1
:10043000178ADFED178A0020B0EE481AF0EE680A3E
:1004400001F078FB012000F021F9B7EE081AF0EE78
:10045000680A012001F06EFB022000F017F9B0EEEF
:10046000481AF0EE680A022001F064FB032000F055
:100470000DF9B0EE481AF0EE680ABDEC028B0320CD
:10048000BDE8104001F056BB9800002033335340C4
:1004900000000000464910B54A6822F440324A6024
:1004A0004A6843681A434A6001684A6822F48072C5
:1004B0004A6001684A68036942EA03224A600168A7
:1004C0004A6822F040724A6001684A6883681A43A9
:1004D0004A6001688A6822F400628A6001688A685A
:1004E000C3681A438A60816A6FF07062D142016802
:1004F0008A6822F070628A6001688A680CD0836A18
:100500001A438A6001688A6822F040528A60016852
:100510008A68C36A1A4301E022F040528A60016887
:100520008A6822F002028A6001688A68037E42EAD1
:1005300043028A6090F82010002901684A680FD0B1
:1005400042F400624A6001684A6822F460424A60EC
:1005500001684A68174C436A04EB43331A4301E0CD
:1005600022F400624A600168CA6A22F47002CA6218
:100570000168CA6A838B104C04EB03531A43CA62A6
:1005800001688A6822F400728A6001688A6890F8BB
:10059000303042EA43228A6001688A6822F480622D
:1005A0008A6001688A68406942EA8020886010BDDC
:1005B0000023014000E0FFFF0000F0FFFEE7000025
:1005C000014800F097BA000094010020014800F0B3
:1005D00091BA0000E800002001681823CAB2103A5E
:1005E000B2FBF3F2054B6FF30901032A9B5CC36571
:1005F00000D9091D8165084670470000AC3B000822
:1006000010B5014600208B698A6A4FF0C07453B15F
:10061000B3F5005F15D072B1012A0CD0022A0AD0BE
:10062000032A09D104E01AB1012A06D0022A03D113
:10063000C96AC90100D5012010BDC96AA142FAD01A
:1006400010BD002AF7D0012AF2D0022AF3D0032AE3
:10065000F3D010BD30B50468256825F480252560E9
:10066000046863608368402B036803D09960006866
:10067000C26030BD9A600068C16030BD704770478D
:10068000014800F0E8BC000048010020024901EBED
:10069000800090ED010A7047084B002078B50024D7
:1006A000009490F83C20012A19D0012280F83C20C7
:1006B0000A6807230568092A13D9EE680A3A02EB8B
:1006C000420293409E43EE600B788A680A3B03EB3C
:1006D00043039A400368DD682A43DA6010E0022091
:1006E00078BD2E6902EB420293409E432E610B7847
:1006F0008A6803EB43039A4003681D692A431A6121
:100700004A681F23072A13D205686E6B521E02EB3C
:10071000820293409E436E630B790A885B1E92B2FD
:1007200003EB83039A4003685D6B2A435A6327E017
:1007300005680D2A12D22E6BD21F02EB8202934063
:100740009E432E630B790A88DB1F92B203EB83036F
:100750009A4003681D6B2A431A6311E0EE6A0D3A52
:1007600002EB820293409E43EE620B790A880D3BB6
:1007700092B203EB83039A400368DD6A2A43DA628C
:10078000164B0568144A9D4206D10D68122D03D1FF
:10079000556845F48005556005689D4218D10B6881
:1007A000102B01D0112B13D1536843F40003536075
:1007B000096810290CD10A490A4A0968B1FBF2F10B
:1007C00001EB8101490000E0491E00910029FBD1A5
:1007D00080F83C40002078BD00230140002001400B
:1007E0001000002040420F0070477047704770B5FE
:1007F00004004FF0000503D0206C002610B107E084
:10080000012070BD204600F01DF8666484F83C604D
:10081000206CC00610D4206C20F4885040F00200F8
:1008200020642046FFF736FE6664206C20F002004C
:1008300040F00100206400E0012584F83C60284677
:1008400070BD000070B586B0064614216846FFF7FB
:1008500061FD1D493068884234D11C48002501687B
:1008600041F480710160006800F4807005901748C1
:100870001438016841F0040101600068694600F025
:10088000040005900F2000900320CDE901051048D9
:1008900000F0D6FA104C0F48C4E900050015A56019
:1008A000C4E90350400060618000A0614011C4E9C8
:1008B00007052046656200F0EDF908B1FFF7DFFE9D
:1008C000B463A66306B070BD002001404438024006
:1008D0000008024010640240E8000020F8B50E460F
:1008E00000210446009190F83C00012807D0012027
:1008F00084F83C0020688368DB0702D011E0022006
:10090000F8BD836843F0010383603748374B0068C4
:10091000B0FBF3F000EB400000E0401E0090002828
:10092000FBD120688368DB075CD0236C40F2016553
:10093000AB4343F4807323644068400505D5206CC5
:1009400020F4005040F480502064206CC00404D592
:10095000606C20F00600606400E0616484F83C1084
:10096000A16B2448224DC863A16B23480864A16B86
:100970002248C86421686FF022000860206841683E
:1009800041F0806141602068816841F4807181603C
:100990002168134632464C31A06B00F008FA6868B3
:1009A0001749C006206806D088421BD1816811F023
:1009B000405F13D016E08842F8D0124A904203D12B
:1009C000D1F80423D206F1D00F4A90420AD1D1F8CF
:1009D000041301F01F011029E8D303E0816841F0FE
:1009E000804181600020F8BD1000002040420F00CF
:1009F000002301408D03000811040008FB030008D8
:100A000000200140002101400022014010B50446B1
:100A1000002094F83C1001290CD0012184F83C10EE
:100A200021688A6822F001028A6021688A68D207F8
:100A300002D013E0022010BD886820F48070886026
:100A4000A06B00F00FF821684A6822F080624A60CB
:100A5000216C21F4885141F001012164002184F8C6
:100A60003C1010BD2DE9F0410446876D00F0C4FA3A
:100A7000064694F835000025022806D080206065DF
:100A800084F834500120BDE8F0812068016821F02D
:100A9000160101602068416921F080014161206CEC
:100AA00008B9A06C20B12068016821F0080101603C
:100AB0002068016821F0010101600BE000F09CFA60
:100AC000801B052806D92020606504F8345F0320C8
:100AD0006070D8E720680068C007EFD194F85C1018
:100AE0003F208840B86004F8345F01206070002027
:100AF000C9E700002DE9F84304464FF00009CDF89E
:100B0000009063484FF41651A56D0068B0FBF1F7F3
:100B10002E6894F85C10082000FA01F131420FD0E1
:100B200021680A6852070BD50A6822F004020A609D
:100B300094F85C108840A860606D40F0010060652A
:100B400094F85C104FF0010808FA01F0304208D028
:100B500021684969090604D5A860606D40F002006B
:100B6000606594F85C1004208840304208D0216809
:100B70000968890704D5A860606D40F004006065CD
:100B800094F85C1010208840304218D02168096821
:100B9000090714D5A86020680168490304D50068D6
:100BA000000308D5A16C07E00168C90503D40168FA
:100BB00021F008010160216C09B12046884794F8B2
:100BC0005C1020208840304231D021680968C90675
:100BD0002DD5A86094F8350005282068016806D056
:100BE000490347D5006800031DD4616C1CE021F067
:100BF000160101602068416921F080014161206C8B
:100C000008B9A06C20B12068016821F008010160DA
:100C100094F85C103F208840A86084F8349084F8F1
:100C20003580216D1FE0E16B09B120468847606D7A
:100C300000282BD0606DC00714D0052084F8350043
:100C40002068016821F0010101600098401C0090BB
:100C5000B84203D820680068C007F6D184F8349001
:100C600084F83580E16C002910D001B02046BDE841
:100C7000F04308470168C905D5D4016821F0100187
:100C8000016084F8349084F83580CCE7BDE8F883BF
:100C9000100000202DE9F041044600F0ADF90646B1
:100CA0005CB1002584F83450022084F835002068B7
:100CB000016821F0010101600DE00120BDE8F08133
:100CC00000F09AF9801B052805D9202060650320D3
:100CD00084F83500F2E720680068C007F0D1226888
:100CE000116820480140D4E901031843D4E90336D0
:100CF0003343184363691843A3691843E3691843EE
:100D0000236A18430843616A042903D1D4E90B1309
:100D100019430843106020684069666A20F00701A3
:100D200030460E43012704280CD1A06A0643E06A2E
:100D300040B12046FFF764FC20B14020606584F894
:100D40003570BAE7206846612046FFF745FC94F805
:100D50005C203F2191408160656584F835700020FA
:100D6000ACE700003F8010F070B5044690F8340006
:100D7000002501280CD0012084F8340094F8356057
:100D80000020012E06D084F834000225284670BDCC
:100D9000022070BD022684F8356060652046FFF7AA
:100DA00059FC2068016841F001010160EEE72DE97E
:100DB000F0410446866D90F83400002501280DD0DE
:100DC000012084F8340094F835700020012F07D0FA
:100DD00084F8340002252846BDE8F0810220FBE7B4
:100DE000022784F8357060652046FFF733FC94F8DD
:100DF0005C103F208840B0602068016841F0160117
:100E00000160206C20B12068016841F00801016098
:100E10002068016841F001010160DCE770B504461B
:100E200000F0EAF80546601C02D00448007804444B
:100E300000F0E2F8401BA042FAD370BD040000208D
:100E40002DE9F84F00224FF0010803254FF00F0E57
:100E50000B6808FA02F42340A3426ED14E68012EBB
:100E600005D0022E03D0112E01D0122E12D1866889
:100E70004FEA420C05FA0CF7BE43CF6807FA0CF7AD
:100E8000374387604668A6430C79C4F30014944046
:100E900034434460C668570005FA07FC8C6826EAAC
:100EA0000C06BC403443C4604C68022C01D0122CA8
:100EB00013D1D40800EB8404A346D4F8209054073F
:100EC0004FEAD46A0EFA0AF629EA06090E6906FA0A
:100ED0000AF646EA0906CBF8206006680C7926EA8D
:100EE0000C0604F00304BC40344304604C68E40086
:100EF00065D5364C266846F480462660246822F084
:100F0000030604F480440094314C3444A446D4F8DD
:100F100008489607370F0EFA07F6B4432D4EB04235
:100F200001D1002624E02C4EB04201D101261FE061
:100F30002A4EB04202D102261AE040E0284EB042CA
:100F400001D1032614E0274EB04201D104260FE060
:100F5000254EB04201D105260AE0244EB04201D10F
:100F6000062605E0224EB04201D1072600E0082601
:100F7000BE402643CCF808681E4E34684F689C4338
:100F8000FF0300D51C4334601A4C241D26684F68AB
:100F90009E43BF0300D51E432660164E08363468B4
:100FA0004F689C43FF0200D51C433460114E0C3641
:100FB00034684F689C43BF0200D51C433460521C08
:100FC000102AFFF445AFBDE8F88F00004438024016
:100FD00000300140000002400004024000080240CE
:100FE000000C0240001002400014024000180240B1
:100FF000001C0240003C014001488068704700002E
:101000000400002070B5040011D021684CF6CC40DB
:101010000860216845F255500860D4E9000141603C
:101020002168A0688860FFF7E7FF054609E0012016
:1010300070BD00BFFFF7E0FF401B302801D903203F
:1010400070BD2068C0680028F4D121684AF6AA2043
:101050000860002070BD00684AF6AA2101600020E7
:10106000704700000248816802781144816070472F
:10107000040000200B4810B5016841F400710160C4
:10108000016841F480610160016841F48071016090
:10109000032000F08DF8002000F006F800F03EF884
:1010A000002010BD003C024010B5014688B000226F
:1010B0001D2000F05DF81D2000F04CF813480024BE
:1010C000016841F002010160006805A900F002001A
:1010D0000690684600F018F900F036F90C49400017
:1010E000B0FBF1F10C480B4A491E026040F2E732B6
:1010F000C0E90324C0E9011400F028FB10B101206D
:1011000008B010BD044800F03DFBF9E7403802404C
:1011100040420F0000040040F40100200C4882B05F
:10112000016841F480410160006800F48040009053
:101130000748001F016841F08051016000680022EB
:1011400000F0805000900F21901E02B000F010B807
:1011500044380240002809DB00F01F0201219140C1
:101160004009800000F1E020C0F800117047000045
:10117000F0B40E4B1B680C46C3F30223C3F1070502
:10118000042D00D90425191D072901D2002300E0F0
:10119000DB1E012606FA05F1491E214099409E40BA
:1011A000761E16403143F0BC01F03EB80CED00E075
:1011B000064900F0070208684FF6FF03184040EAAE
:1011C0000220034A10430860704700000CED00E065
:1011D0000000FA052DE9F0470E46050065D0DFF85E
:1011E0001481D8F80000F7B200F00F00B04207D227
:1011F00088F80070D8F8000000F00F00B04254D119
:1012000028683D4C810712D5400703D5206840F47B
:10121000E05020602878000703D5206840F4604043
:1012200020602068A96820F0F0000843206028783A
:10123000C0072DD0304968680839012812D002282B
:1012400013D0032811D00968890700292DDA2168F5
:1012500021F0030101432160FFF7CEFE814641F2F8
:10126000883A0EE009688903EFE709688901ECE72D
:10127000FFF7C2FEA0EB0901514502D90320BDE8EA
:10128000F0872068696800F00C00B0EB810FEFD1A7
:10129000D8F80010404601F00F01B14207D907709D
:1012A000006800F00F00B04201D00120E7E7287885
:1012B000400705D52068E96820F4E0500843206025
:1012C0002878000706D52068296920F4604040EAA4
:1012D000C100206000F058F82168084AC1F30311EA
:1012E000515CC8400649086006480068FFF7DCFE0C
:1012F0000020C4E7003C024008380240B43B00082C
:1013000010000020080000200F2202600C4A136821
:1013100003F003034360136803F0F0038360136872
:1013200003F4E053C36012684FF4E05303EAD202BF
:1013300002610448006800F00F0008607047000078
:1013400008380240003C024004480549006809682A
:10135000044AC1F38221515CC8407047100000204C
:1013600008380240C43B0008044805490068096881
:10137000044AC1F34231515CC8407047100000205C
:1013800008380240C43B0008154810B5006810F04A
:101390000C02144813D01449042A0FD0082A0ED185
:1013A0000F4C241F2268236802F03F025B0207D51E
:1013B0002068C0F38810A0FB010106E0084610BDBC
:1013C0002168C1F38811A1FB00010023FEF758FF3B
:1013D0002168C1F30141491C4900B0FBF1F010BD87
:1013E000083802400024F40040787D012DE9F84FD0
:1013F00004006ED02078DFF83C93C007A9F1040503
:101400004AD009F104000168C1F38101012908D023
:101410000068C0F3810002280AD1D9F80000400218
:1014200006D52868800337D560680028E1D033E00E
:101430006068B0F5803F10D0B0F5A02F286810D0BC
:1014400020F480302860286820F4802028606068BC
:10145000A8B1FFF7D1FD06460DE0286840F48030C2
:10146000F4E740F480202860F7E700BFFFF7C4FDF1
:10147000801B642873D828688003F7D50CE0FFF739
:10148000BBFD064605E000BFFFF7B6FD801B6428E4
:10149000F0D828688003F7D42078DFF89C82800792
:1014A0004FF0000A3ED5A348001D016811F00C0F53
:1014B00008D00068C0F3810002280BD1D9F80000E1
:1014C000400207D42868800716D5E068012800D1BB
:1014D00012E02BE1E068B8B10120C8F80000FFF786
:1014E0008BFD064605E000BFFFF786FD801B022846
:1014F000C0D828688007F7D52868216920F0F8004F
:1015000040EAC10028600DE0C8F800A0FFF774FDB4
:10151000064604E0FFF770FD801B02281FD82868EC
:101520008007F7D42078000722D5824E834861696E
:10153000703671B101210160FFF75EFD074604E0DE
:10154000FFF75AFDC01B022809D830688007F7D57D
:101550000EE0C0F800A0FFF74FFD074605E082E06F
:10156000FFF74AFDC01B02287DD830688007F7D4FA
:101570002078400768D5DFF8BCB100270BF13C0BA1
:10158000DBF80000C0000BD4DBF8001041F0805104
:10159000CBF80010DBF80000012700F0805000902D
:1015A000674E3068C00510D4306840F480703060F9
:1015B000FFF722FD009005E0FFF71EFD0099401A9D
:1015C000022850D83068C005F6D55A4EA0686C364F
:1015D00001280FD00528306810D020F001003060BD
:1015E000306820F004003060A068B8B1FFF704FD57
:1015F00000900FE0306840F00100F4E740F0040094
:101600003060F7E7FFF7F8FC0099411A41F28830A3
:10161000814266D830688007F4D50EE0FFF7ECFC15
:10162000009007E0FFF7E8FC0099411A41F288308A
:10163000814256D830688007F4D42FB1DBF800100F
:1016400021F08051CBF80010A069C8B33949091DB9
:101650000968C1F3810102294AD00228504607D007
:10166000C8F8600000E03CE0FFF7C6FC04463BE041
:101670004746C8F86000FFF7BFFC064605E000BF1C
:10168000FFF7BAFC801B02282BD828688001F7D40A
:10169000D4E907010843A16A2A4A490802EB01413B
:1016A000626A41EA8211084394F82C1040EA016111
:1016B000C9F8001001203866FFF79EFC044606E0DA
:1016C00036E000BFFFF798FC001B022809D8286805
:1016D0008001F7D52CE000BFFFF78EFC001B02282D
:1016E00002D90320BDE8F88F28688001F4D41FE0F8
:1016F0000128F7D0D9F80000E26900F48001914296
:1017000014D1226A00F03F0191420FD147F6C07117
:10171000626A0140914209D1A26A00F440319142CB
:1017200004D1E16A00F07060884201D00120D9E75D
:101730000020D7E70438024000004742800E4742AD
:10174000007000400000FFFF7047704710B50400B4
:1017500003D094F83D0010B107E0012010BD002037
:1017600084F83C00204600F00CF8022084F83D008C
:10177000211D206800F044FB012084F83D0000207A
:1017800010BD70470168CA6842F00102CA60006873
:10179000816801F00701062903D0016841F00101C9
:1017A000016000207047704770B504460068016909
:1017B0004FF00005C943890715D4C168C94389079B
:1017C00011D4E91E0161012020772068806980071B
:1017D000204602D0FFF7E7FF04E000F098F820462B
:1017E00000F096F8257720680169C943490717D4A6
:1017F000C168C943490713D46FF004010161022095
:1018000020772068806910F4407F204602D0FFF7DF
:10181000CAFF04E000F07BF8204600F079F8257755
:1018200020680169C943090716D4C168C94309077B
:1018300012D46FF008010161042020772068C0698C
:101840008007204602D0FFF7AEFF04E000F05FF80B
:10185000204600F05DF8257720680169C943C90674
:1018600017D4C168C943C90613D46FF010010161D0
:10187000082020772068C06910F4407F204602D0FD
:10188000FFF791FF04E000F042F8204600F040F836
:10189000257720680169C943C90708D1C168C943D0
:1018A000C90704D1891E0161204600F033F8206881
:1018B0000169C943090609D4C168C943090605D4A9
:1018C0006FF0800101612046FFF73EFF206801694B
:1018D000C943490609D4C168C943490605D46FF014
:1018E00040010161204600F01FF820680169C943EA
:1018F00089060BD4C168C943890607D46FF020015B
:1019000001612046BDE87040FFF71FBF70BD704702
:101910007047000000680349884201D1FFF7A2BB6D
:101920007047000000040040704770B5040004D008
:1019300094F83900002510B106E0012070BD84F84C
:101940003850204600F022F8242084F8390020681E
:10195000C16821F40051C160204600F0F5FA20680A
:10196000016921F4904101612068416921F02A0157
:1019700041612068C16841F40051C160E5632020E5
:1019800084F8390084F83A00002070BD70B586B044
:10199000064614216846FEF7BDFC2449306888429B
:1019A00041D123480025016841F48021016000688D
:1019B00000F4802005901E481038016841F00201B3
:1019C00001600068694600F0020005904FF4406035
:1019D00000900220CDE90105032003900720049028
:1019E0001448FFF72DFA154C134820604FF00060A3
:1019F000C4E901054014C4E9035080106561C4E9DD
:101A00000650256220466562FFF744F908B1FEF7EB
:101A100036FE7463002205212720A663FFF7A8FB8A
:101A20002720FFF797FB06B070BD0000004800407C
:101A30004038024000040240286002409401002027
:101A40002DE9F843044690F839001F4616460D4626
:101A5000202850D1B5B1AEB194F8380001284AD051
:101A6000012084F838004FF00008C4F83C802120A1
:101A700084F83900FFF7C0FAA6848146E68484F82A
:101A8000388026E00120BDE8F883E08C401EE08429
:101A9000A0684B46B0F5805F4FF000024FF0800128
:101AA0002046009703D000F0E3FAE8B90DE000F01B
:101AB000DFFAC8B928882168C0F3080048602069A7
:101AC00008B16D1C05E0AD1C03E0216815F8010BA1
:101AD0004860E08C0028D8D14B46002240212046A7
:101AE000009700F0C5FA08B10320CCE7202084F865
:101AF00039000020C7E70220C5E7FEE708B501F07E
:101B00009BFE009000F0E6FA00F0AEFBFEF786FCCC
:101B10004FF4FA74204600F0E3FBFEF7B1FD182005
:101B200000F06AFBFEF7ACFD2146684601F01EFAA4
:101B3000F8E70000B4EEE00A0749F1EE10FA06DD1E
:101B4000B4EEC10AF1EE10FA01D2012200E0002247
:101B50000A54D0B270470000980000207FB50021E1
:101B60002648009101910291234A039102600124C9
:101B70004FF480320461C0E90121047680F820101E
:101B80001F4AC0E90A210425C561C16080F83040C0
:101B90004461FEF72CFE08B1FEF771FD0A20CDE985
:101BA00000040224694615480294FEF777FD08B147
:101BB000FEF765FD0B20CDE9000469460F48FEF7EE
:101BC0006DFD08B1FEF75BFD0C2000900320019035
:101BD00069460A48FEF762FD08B1FEF750FD0D2088
:101BE000CDE9000569460548FEF758FD002801D0FB
:101BF000FEF745FD7FBD000000200140A000002051
:101C00000100000F114808B5016841F4800101602E
:101C1000016801F480010091016841F40011016044
:101C20000068002200F40010009005210C20FFF74E
:101C30009FFA0C20FFF78EFA002205213820FFF7CB
:101C400097FABDE808403820FFF784BA30380240E0
:101C500010B5044A0021044800F094FB03490860D1
:101C600010BD0000883B0008FD1A0008000000209D
:101C7000114808B5016841F004010160016801F0F4
:101C800004010091016841F080010160016801F0E8
:101C900080010091016841F002010160016801F0DA
:101CA00002010091016841F001010160006800F04B
:101CB0000100009008BD000030380240094810B50E
:101CC00007490160032141604FF47A718160FFF799
:101CD00099F9002803D0BDE81040FEF7D0BC10BD34
:101CE00000300040480100200C4810B50A4901604E
:101CF0004FF4E1314160002181600C22C160C0E9F4
:101D000004128161C161FFF710FE002803D0BDE815
:101D10001040FEF7B4BC10BD004800405401002044
:101D2000FEE7704710B5502080F31188BFF34F8F46
:101D3000BFF36F8F01F086FD18B104494FF080505A
:101D40000860002080F3118810BD000004ED00E061
:101D500030B593B030216846FEF7DCFA14210CA8A8
:101D6000FEF7D8FA1A480025016841F08051016059
:101D7000006800F0805011901648016841F48041DD
:101D800001600068102100F4804011900A2000904A
:101D90000120CDE9030105A9022481E831000820D2
:101DA0000890A820CDE9090404200B906846FFF7AD
:101DB0001DFB0CA90F2081E831004FF4A0500F90BB
:101DC000E002109005210CA8FFF704FA13B030BD13
:101DD00040380240007000400548016841F470013D
:101DE000016003494FF000608039086070470000CF
:101DF00088ED00E00148FFF7D7BC0000F4010020A7
:101E0000F0B50268254C264D264E274F274B4FF044
:101E1000804CA04209D0604507D0A84205D0B0420E
:101E200003D0B84201D0984204D122F0700E4A6823
:101E300042EA0E02A0421BD0604519D0A84217D03A
:101E4000B04215D0B84213D0984211D0184DA842D4
:101E50000ED0184DA8420BD0174DA84208D0174DF0
:101E6000A84205D0164DA84202D0164DA84203D173
:101E700022F44075CA682A434D6922F080022A4341
:101E800002608A68C2620A688262A04201D09842F7
:101E900001D10969016301214161F0BD00000140E8
:101EA0000004004000080040000C00400004014015
:101EB000004001400044014000480140001800403B
:101EC000001C00400020004038B50446006803684C
:101ED00040680090184884422DD1606B0068036808
:101EE00023F001030360606B0068406880B2081A49
:101EF000904216D11149122201F11200FEF7F1F9B8
:101F00000F4800236A460D49006801F0FBFA00986B
:101F100038B10C494FF080500860BFF34F8FBFF3CA
:101F20006F8F616B322009684860606B00680168E0
:101F300041F00101016038BD540100202C4B00200C
:101F40009400002004ED00E02DE9F0410446006813
:101F50000169E26821F44051114301612169A068DF
:101F6000E26908436169114308432168CA6849F27C
:101F70000C639A430243CA6020684169A26921F454
:101F8000407111434161E069192764253226B0F59B
:101F9000004F354A354920684FF0000806D0884286
:101FA00001D0904236D1FFF7DFF935E0884201D009
:101FB000904202D1FFF7D8F901E0FFF7C5F9616857
:101FC0004A18A0FB070148EB0803FEF759F9014640
:101FD000B0FBF5F00201B1FBF5F06FF018035843C8
:101FE00001EB800006EBC000B0FBF5F000F0F8005C
:101FF00002EB4002B1FBF5F0584301EB800006EB29
:10200000C000B0FBF5F000F00700216810448860C4
:10201000BDE8F081FFF798F961688B0F8A00A0FB9B
:102020000701FEF72DF90146B0FBF5F06FF018023D
:10203000504301EB800006EB0010B0FBF5F000F020
:10204000F002B1FBF5F002EB0012B1FBF5F06FF01E
:102050001803584301EB800006EB0010B0FBF5F0CD
:1020600000F00F00D1E70000001401400010014013
:102070002DE9F041984617460E460446069D1DE0A0
:10208000681C1BD02DB1FEF7B7FFA0EB0800A842DB
:1020900014D92068C16821F4D071C16020684169F9
:1020A00021F001014161202084F8390084F83A00D0
:1020B000002084F838000320BDE8F0812068006823
:1020C00036EA000004D00020B842D9D00020F3E75F
:1020D0000120F9E738B50F4800210068026842681E
:1020E0000092C26842F01002C2600A4C0A4A94F898
:1020F0003A0020280DD13223A262A385E163216832
:10210000606B091DFEF730FE2068416941F0400117
:10211000416138BD540100202C4B00201222322195
:10212000014800F003B800005401002030B40368F7
:102130001C68E40605D5DB68DB0602D530BCFFF77A
:10214000C3BE30BC7047000030B41349134C0023A9
:10215000087034F810401A46521C2344142AFBDB42
:102160001422B3FBF2F200EE102ADFED0D0A0A4A48
:10217000B8EE400A143202EB800201EB800020EE40
:10218000200ADFED080A20EE200A82ED000A80ED29
:10219000010A30BCFEF774BA084B00208C00002006
:1021A0000000803933335340FEE700000022122143
:1021B000032001F05BF8094C4FF0FF3520602A4600
:1021C0000749206801F0FCF90128F8D164230D22A9
:1021D00004A10848FFF734FCF1E700009400002058
:1021E000504B00205375636365737366756C0D0AFD
:1021F00000000000540100201CB505490023CDE972
:1022000000014FF4007203A1064801F0AFFA1CBDB3
:102210009C0000205573617274496E74657261632D
:1022200074000000AD2100080907090E002804DB36
:1022300000F1E02080F80014704700F00F0000F17A
:10224000E02080F8141D704702E008C8121F08C182
:10225000002AFAD170477047002001E001C1121F27
:10226000002AFBD17047000010B504220D490E482A
:10227000FEF734FB0D4C022060706420FEF7CEFDAB
:102280000020FFF761FF0120FFF75EFF0220FFF74C
:102290005BFF0320FFF758FF0348FEF7B7FB012061
:1022A000607010BD8C000020A0000020084B0020B2
:1022B000FEF7E0FEFFF74CFDFFF7DAFCFFF7A2FCAC
:1022C000FFF74CFCFFF710FDFFF7F8FCFEF7D8F91D
:1022D00000F020F8FFF7BCFC00F036F8FEE7000045
:1022E00010B5EFF3058179B9EFF3108111B9EFF370
:1022F000118119B106490968022905D0002408B1E5
:1023000000F00EFE204610BD6FF00504FAE7000055
:1023100064000020EFF3058068B9EFF310820949EB
:10232000086812B9EFF311820AB1022803D028B16C
:102330004FF0FF3070476FF00500704701200860D4
:10234000002070476400002010B5EFF3058070B9DD
:10235000EFF310820A49086812B9EFF311820AB14B
:10236000022804D0012805D04FF0FF3010BD6FF0D7
:10237000050010BD0220086000F080FE002010BDA6
:10238000640000202DE9FF414FEA01034FF00005F2
:10239000EFF30581039599BBEFF3108111B9EFF3CA
:1023A000118119B11F490968022938D040B380262C
:1023B000182100244AB3176807B13C4697691FB13A
:1023C00039467F1E382F02D21779FF0703D000202D
:1023D00004B0BDE8F081576907B1BE08D2F808C063
:1023E000BCF1000F0DD0D5685C2D18D312693AB13D
:1023F00037B18DE806103246214601F0E4F903902A
:102400000DE0D7685FB912694AB903AACDE9001295
:10241000B2B2214601F0AAF9012800D00395039831
:10242000D6E70000640000202DE9F041134C0F4670
:10243000054666692068001D00F042FC681C07D153
:1024400037B12168BDE8F0410D48091D00F088BC96
:1024500020683544B5424560216805D2A068BDE8D2
:10246000F041091D00F064BC6068091D00F060FCCB
:10247000206B854200D22563BDE8F0811400002066
:10248000240700202DE9F041054600F075FC2D4C95
:102490002069401C206120682B4F10B1E06930B3E7
:1024A0002BE025602069012827D1002606EB860055
:1024B00007EB800000F02EFC761C382EF6D3234864
:1024C00000F028FC2148143000F024FC1F4828307C
:1024D00000F020FC1D483C3000F01CFC1B48503034
:1024E00000F018FC194860601430A06005E0206816
:1024F000E96AC06A884200D82560E06A401CE06250
:102500006864E86AA169884200D9A06100EB800094
:1025100007EB8000291D00F023FC00F04DFCE06972
:1025200000280CD02068E96AC06A884207D20849AE
:102530004FF080500860BFF34F8FBFF36F8FBDE83F
:10254000F08100001400002074020020D406002056
:1025500004ED00E038B500F00FFC104CA068C8B9DD
:102560000F4800F0D7FB0E48143000F0D3FB0C48A6
:102570002060143060600A4B00202833009003F183
:10258000500210210A2000F095FEA06010B105A1B4
:1025900000F090FCBDE8384000F00EBC5000002078
:1025A00038070020546D72510000000030B4026CF6
:1025B0000B46002A0BD0C1681144C1608468A14257
:1025C00001D30168C16030BC1846FDF78ABE30BC3B
:1025D00070472DE9F041856B174604460026026CD2
:1025E00082B1C7B1E068FDF77CFEE168206C091A92
:1025F000E1602268914202D2A168081AE060022FCD
:1026000016D017E02068A8B9A06801F07FF9064647
:102610000020A0600EE06068FDF763FE216C60683A
:1026200008446060A168884204D32068606001E0CB
:1026300005B16D1E6D1CA5633046BDE8F08110B577
:10264000044690F8590058B101280CD002280FD048
:10265000502080F31188BFF34F8FBFF36F8FFEE7D9
:10266000206B00F0BDFB2046BDE8104000F0B8BB79
:1026700010BD000010484FF47051420706D0C01D35
:102680000D4920F00700411AC1F570510B4A002393
:102690000144C2E900030839103A21F00701116032
:1026A0004B600B600B1AC0E9001393604FF00040C1
:1026B0005360D06070470000080F002078000020B1
:1026C000144E154CA6F29C474FF08058DFF84C9002
:1026D00012E000BF00F050FBF068C568281D00F054
:1026E000EFFA2069401E2061E068401EE06000F0C3
:1026F00063FB2846FFF7A3FFE0680028EAD13868AB
:102700000128F9D9C9F80080BFF34F8FBFF36F8F4D
:10271000F2E70000100700201400002004ED00E0A4
:1027200070B51D46049C51B1C4F80020C4E90F01E6
:102730000121204600F0F2FD84F84C5070BD246069
:10274000F4E700002DE9F05F8846DDE90B941546BB
:10275000834691009A460A9EA522206BFDF7D3FD81
:102760006FF00301206B01EB8501084420F007079F
:10277000780707D0502080F31188BFF34F8FBFF345
:102780006F8FFEE70025B8F1000F0FD05FF000005B
:10279000221818F8001082F8341018F8001011B13F
:1027A000401C1028F4D384F8435001E084F83450DE
:1027B000382E00D33726E662C4E91365201D00F0E9
:1027C000B4FA04F1180000F0B0FA2461C6F1380040
:1027D0006462A061656584F858505246594638468F
:1027E00000F058FA2060B9F1000F01D0C9F800409C
:1027F000BDE8F09F30B5114900E011460A688242F9
:10280000FBD34B685C18844203D14068184448608D
:10281000084643681C18944209D1084C103C2468AF
:10282000A24209D052681A4442600A6812680260E3
:10283000814200D0086030BD0460F9E778000020D4
:1028400070B5002441600B4D0061914206D8D11A49
:102850008269914206D2011D686807E09A4203D25C
:10286000994201D3012403E0011D286800F060FAB9
:10287000204670BD5000002010B5044600F07CFAE0
:10288000A06B28B15FF0000400F096FA204610BD5E
:102890000124F9E730B589B03C4D6EE0049800287A
:1028A00006DADDE90601059A90470498002864DB02
:1028B000069C606910B1201D00F002FA03A800F028
:1028C000D7F8024604980A2857D2DFE800F0050539
:1028D000052D334A05052D3394F8280040F00100FA
:1028E00084F828000599A069059B01442046FFF75C
:1028F000A7FF68B3216A2046884794F8280040075C
:102900003BD5002000900598A16900234218194684
:10291000204601F005F9D8B9502080F31188BFF3A3
:102920004F8FBFF36F8FFEE714F8280F20F00100E0
:10293000207022E094F8280040F0010084F828007C
:102940000598A06128B1811813462046FFF778FF4B
:1029500013E0502080F31188BFF34F8FBFF36F8FC8
:10296000FEE794F82800810703D4204600F038FAE7
:1029700003E020F0010084F82800002204A9A868E0
:1029800000F01EFE002889D109B030BD50000020A3
:102990002DE9FC410F46054600F0B4FB01A800F00C
:1029A00067F80446019818B101F028F8BDE8FC81E9
:1029B000254EAFB170680068D0B30027291B3A4696
:1029C000B06800F08BFA01F019F80028EED11F4929
:1029D0004FF080500860BFF34F8FBFF36F8FE5E774
:1029E000A542EBD801F00AF830682746C068C468F1
:1029F000201D00F065F994F82800410719D5A06959
:102A00002B4641193A462046FFF71AFFA8B100208D
:102A10000346014600902A46204601F081F860B93D
:102A2000502080F31188BFF34F8FBFF36F8FFEE705
:102A300007E020F0010084F82800216A204688473A
:102A4000B4E70127BAE700005000002004ED00E0E1
:102A500006484168096829B14168C968C968496878
:102A6000016370474FF0FF31FAE7000014000020C7
:102A700070B5054600F0E0FE064E0446306984421B
:102A800003D200F009F8012000E000202860204671
:102A9000346170BD50000020F8B5194D20E0C068C9
:102AA000C4680668201D00F00BF9216A204688479B
:102AB00094F82800400713D5A0693044B04206D9E5
:102AC00024616060211D286800F032F908E00020D0
:102AD0000346014600903246204601F021F838B105
:102AE000286801680029DAD16968C5E90010F8BDD5
:102AF000502080F31188BFF34F8FBFF36F8FFEE735
:102B00005000002008484068401C4FF0500080F3FF
:102B1000118804D0BFF34F8FBFF36F8FFEE7BFF371
:102B20004F8FBFF36F8FFEE780000020074C2068B7
:102B3000016841B1C0680021D0F80000FFF728FF0C
:102B4000FFF7A8FEF3E701210020F7E7500000207F
:102B50002DE9F041044600F00FF994F9455004F1D5
:102B6000240609E0606A48B1304600F00FFF08B162
:102B700000F04AFA6D1E6DB2002DF3DC4FF0FF3607
:102B800084F8456000F018F900F0F6F894F9445024
:102B900004F1100709E0206948B1384600F0F6FE5C
:102BA00008B100F031FA6D1E6DB2002DF3DC84F82F
:102BB0004460BDE8F04100F0FFB800002DE9F041AD
:102BC0000546002700F09EFA314E306808B9FFF73D
:102BD00051FDF06805424BD1C5B3083568070ED0EA
:102BE00005F00700C0F108000544680707D0502031
:102BF00080F31188BFF34F8FBFF36F8FFEE72DB3C4
:102C00007068854234D82248103001460C6801E0D3
:102C100020460C466168A94202D221680029F7D1FA
:102C200031688C4224D007682168016060680837E9
:102C3000411B10290FD96019420708D0502080F39A
:102C40001188BFF34F8FBFF36F8FFEE710E0416035
:102C50006560FFF7CFFD61687068401A7060B26808
:102C6000904200D2B060F06801430020C4E9000146
:102C700000F0C4FE780707D0502080F31188BFF31E
:102C80004F8FBFF36F8FFEE73846BDE8F08100003D
:102C90006800002010B5031F4FF080741C601B1FDC
:102CA00021F001011960191F044B0B6014390A60EF
:102CB000091F6FF0020244380A6010BD052B00089E
:102CC000D0E9013201699A60D0E901235A604A686B
:102CD000824201D182684A60002202610868401E77
:102CE0000860086870470000034B036003F15C0054
:102CF000086080201060704750080020044B03607B
:102D000003F15C0008604FF48070106070470000B1
:102D1000AC0A002000F108014FF0FF32C0E90112B7
:102D2000C1600161002101607047002101617047AD
:102D300030B50B685A1C02D000F1080202E00269AB
:102D400004E02246546825689D42FAD953684B60D6
:102D500099608A60516008610168491C016030BD5A
:102D600042684A6093688B6093685960916008611B
:102D70000168491C01607047502080F31188BFF33F
:102D80004F8FBFF36F8F0A494868401C4860012885
:102D90000CD10848006810F0FF0F07D0502080F3D6
:102DA0001188BFF34F8FBFF36F8FFEE770470000AE
:102DB0008000002004ED00E00849486828B1401E6A
:102DC000486001D180F311887047502080F311884A
:102DD000BFF34F8FBFF36F8FFEE70000800000202E
:102DE00070B5002827D0144DA0F108046168E86888
:102DF000014207D1502080F31188BFF34F8FBFF3FA
:102E00006F8FFEE722683AB1502080F31188BFF33C
:102E10004F8FBFF36F8FFEE78143616000F072F95F
:102E200060686968084468602046FFF7E3FCBDE815
:102E3000704000F0E3BD70BD680000204FF0E0205E
:102E400000210161816105494FF47A720968B1FB83
:102E5000F2F1491E41610721016170471000002015
:102E600010B5FDF7F7F9114910280ED300F1E02055
:102E700090F8F0030A78904207D2502080F311882E
:102E8000BFF34F8FBFF36F8FFEE709480068896873
:102E900000F4E060884207D9502080F31188BFF326
:102EA0004F8FBFF36F8FFEE710BD00008000002042
:102EB0000CED00E010B5084B002200BF53F8324083
:102EC0001CB1521C082AF9D310BD43F8321003EB91
:102ED000C201486010BD00003402002070B51546E4
:102EE0000E460446FFF748FF94F944100020491CA1
:102EF00001D184F8440094F94510491C01D184F8AB
:102F00004500FFF759FFA06B28B92A46314604F166
:102F1000240000F097F82046BDE87040FFF718BE87
:102F200010B5020014D00F48806B38B1502080F3E8
:102F30001188BFF34F8FBFF36F8FFEE700F0E2F809
:102F400000211046FFF770FA00F058FD002807D165
:102F500005494FF080500860BFF34F8FBFF36F8F6C
:102F600010BD00001400002004ED00E070B50D4617
:102F700004000BD095B11E4A906BB8B1502080F37D
:102F80001188BFF34F8FBFF36F8FFEE7502080F3A0
:102F90001188BFF34F8FBFF36F8FFEE7502080F390
:102FA0001188BFF34F8FBFF36F8FFEE700F0AAF8D1
:102FB000526923685919934204D98B420AD9914224
:102FC00002D807E08B42FAD9881A21600021FFF766
:102FD0002BFA00E0216000F011FD002807D105491F
:102FE0004FF080500860BFF34F8FBFF36F8F70BDFD
:102FF0001400002004ED00E002498A6A0260496979
:103000004160704714000020014901204862704768
:103010001400002010B50C4650B109490968183158
:10302000FFF786FE2046BDE810400121FFF7FCB9FE
:10303000502080F31188BFF34F8FBFF36F8FFEE7EF
:103040001400002070B514460D4668B10A4909689D
:103050001831FFF785FE0CB14FF0FF3521462846A9
:10306000BDE87040FFF7E0B9502080F31188BFF34E
:103070004F8FBFF36F8FFEE71400002030B587B08D
:103080000024039405AA04A903A80494FFF72CFEC6
:10309000DDE903010094CDE90110002315A11748D3
:1030A000059A00F090FB164D002868631FD000F0D1
:1030B00007FD012809D0401C19D1502080F3118848
:1030C000BFF34F8FBFF36F8FFEE7502080F311885F
:1030D000BFF34F8FBFF36F8F4FF0FF302863012096
:1030E000E8616C6107B0BDE8304000F045B807B05A
:1030F00030BD000049444C4500000000C1260008D6
:10310000140000200248816B491C81637047000055
:1031100014000020164810B5816B11B101214162E5
:1031200010BD002141628169124A01E0B9B1491E16
:1031300001EB810352F82330002BF7D001EB810320
:1031400002EB830202F1080453685B685360A342F8
:1031500001D15B685360DA680260816110BD502064
:1031600080F31188BFF34F8FBFF36F8FFEE700002E
:1031700014000020740200201CB537480168374A4B
:10318000914207D1502080F31188BFF34F8FBFF3D6
:103190006F8FFEE700683149491E884207D15020F1
:1031A00080F31188BFF34F8FBFF36F8FFEE72C4979
:1031B00008780190FF20087008788DF800009DF8CD
:1031C00000009DF8002000F0F000904207D0502051
:1031D00080F31188BFF34F8FBFF36F8FFEE79DF829
:1031E0000000204B00F0500018700720986005E0A8
:1031F0009DF8002052008DF80020401E9DF8002010
:103200001206F5D49860032807D0502080F3118867
:10321000BFF34F8FBFF36F8FFEE74FF4407098609E
:10322000019808700C482030016841F47001016079
:10323000016841F070410160FFF700FE0020586016
:10324000FCF7D0FF0848016841F040410160FCF7FD
:10325000B5FF00201CBD000000ED00E071C20F4171
:1032600000E400E08000002034EF00E0F8B51746ED
:103270000E46050014D0DEB105FB06F05030FFF716
:103280009DFC04000AD0002084F8460004F150029E
:103290003B46314628460094FFF742FA2046F8BDE7
:1032A000502080F31188BFF34F8FBFF36F8FFEE77D
:1032B0000020E3E738B5049D18B153B1CAB181B11C
:1032C00020E0502080F31188BFF34F8FBFF36F8F42
:1032D000FEE7502080F31188BFF34F8FBFF36F8F4D
:1032E000FEE7502080F31188BFF34F8FBFF36F8F3D
:1032F000FEE739B1502080F31188BFF34F8FBFF341
:103300006F8FFEE750241C46012384F846302B467D
:103310000094FFF705FA204638BD000070B50D4651
:10332000040025D0FFF728FDD4E90F20216802FB17
:103330000011A1600021A163216861600A46D4E9FF
:103340000F01401E00FB0121E16021464FF0FF30DC
:1033500001F8440F487004F110008DB1FFF7DAFC5A
:1033600004F12400FFF7D6FCFFF726FD012070BD15
:10337000502080F31188BFF34F8FBFF36F8FFEE7AC
:1033800021690029F0D000F001FB0028ECD00449AD
:103390004FF080500860BFF34F8FBFF36F8FE3E7AC
:1033A00004ED00E02DE9FF4782B01D468A464FF04C
:1033B0000008040003D0BAF1000F08D011E050203B
:1033C00080F31188BFF34F8FBFF36F8FFEE7206C40
:1033D00038B1502080F31188BFF34F8FBFF36F8F48
:1033E000FEE7022D0AD1E06B012807D0502080F3C0
:1033F0001188BFF34F8FBFF36F8FFEE700F00EFA17
:103400003F4F4FF000094FF0805648B9049838B14B
:10341000502080F31188BFF34F8FBFF36F8FFEE70B
:10342000FFF7AAFCA06BE16B884207D3022D05D001
:103430000498D0B1B8F1000F1AD01EE02A465146C8
:103440002046FFF7C6F8616A19B104F1240000F0C4
:103450009DFA20B13E60BFF34F8FBFF36F8FFFF730
:10346000ABFC012006B0BDE8F087FFF7A5FC22E029
:103470006846FFF7C1FD4FF00108FFF79DFCFFF71D
:1034800041FEFFF779FC94F94400401C01D184F817
:10349000449094F94500401C01D184F84590FFF711
:1034A0008BFC04A9684600F027F930B12046FFF7ED
:1034B0004FFB00F0A3FA0020D4E7FFF75DFCA06B00
:1034C000E16B884213D1FFF777FC04F110000499F7
:1034D000FFF7A0FD2046FFF73BFB00F08FFA002826
:1034E0009ED13E60BFF34F8FBFF36F8F98E7FFF71A
:1034F00063FC2046FFF72CFB00F080FA90E7000009
:1035000004ED00E02DE9F0471F469046894604008F
:1035100003D0B9F1000F08D011E0502080F31188DA
:10352000BFF34F8FBFF36F8FFEE7206C38B1502091
:1035300080F31188BFF34F8FBFF36F8FFEE7022F29
:103540000AD1E06B012807D0502080F31188BFF327
:103550004F8FBFF36F8FFEE7FFF782FC5020EFF332
:10356000118680F31188BFF34F8FBFF36F8FA06B6D
:10357000E16B884206D3022F04D0002086F3118825
:10358000BDE8F08794F945503A4649462046FFF792
:1035900020F8681C04D06D1C84F845500120EDE72C
:1035A000606A0028FAD004F1240000F0EFF9002846
:1035B000F4D0B8F1000FF1D00121C8F80010EDE708
:1035C0002DE9F747002683B08A46040003D0BAF1FC
:1035D000000F08D011E0502080F31188BFF34F8F07
:1035E000BFF36F8FFEE7206C38B1502080F3118855
:1035F000BFF34F8FBFF36F8FFEE700F00FF9DFF8D7
:10360000F4804FF000094FF0805748B9059838B161
:10361000502080F31188BFF34F8FBFF36F8FFEE709
:10362000FFF7AAFBA56BC5B151462046FEF7BEFFCA
:103630006D1EA563206950B104F1100000F0A6F9D9
:1036400028B1C8F80070BFF34F8FBFF36F8FFFF73B
:10365000B3FB012006B0BDE8F087059808B11EB1A4
:1036600006E0FFF7A9FB27E06846FFF7C5FC012647
:10367000FFF7A2FBFFF746FDFFF77EFB94F944003E
:10368000401C01D184F8449094F94500401C01D1BC
:1036900084F84590FFF790FB05A9684600F02CF8E8
:1036A000002820460AD0FFF753FA00F0A7F9204679
:1036B000FFF7E2F80028B3D00020CBE7FFF7DCF8F3
:1036C00090B104F124000599FFF7A4FC2046FFF710
:1036D0003FFA00F093F90028A2D1C8F80070BFF3B8
:1036E0004F8FBFF36F8F9BE72046FFF731FA00F053
:1036F00085F995E704ED00E02DE9F0410C46050061
:1037000011D0C4B1FFF738FB174B5A696E682068B7
:10371000911B471C17D02F689B6A9F4219D0964275
:1037200017D8012410E0502080F31188BFF34F8F89
:10373000BFF36F8FFEE7502080F31188BFF34F8FE8
:10374000BFF36F8FFEE70024FFF736FB2046BDE88E
:10375000F081884205D9401A20602846FFF74CFCCA
:10376000F1E700202060DCE7140000202DE9FF5F76
:103770008346DDE90E87994616468A469000FFF794
:103780001DFA05001CD05C20FFF718FA040014D0C5
:103790000020256384F85900CDE90240CDE9008777
:1037A0004B46324651465846FEF7CCFF2046FEF7C0
:1037B00069FE012004B0BDE8F09F2846FFF710FB2A
:1037C0004FF0FF30F6E7F0B585B0DDE90B640A9DF8
:1037D000A6B1DCB15C2700972663022684F8596005
:1037E000002604AFCDE90246CDE90057FEF7AAFF57
:1037F0002046FEF747FE049805B0F0BD502080F348
:103800001188BFF34F8FBFF36F8FFEE7502080F317
:103810001188BFF34F8FBFF36F8FFEE70548C16973
:1038200019B1806B18B10020704701207047022049
:1038300070470000140000200148406970470000F4
:10384000140000202DE9F0412E4C0027A06B40B160
:10385000206A401C2062606A00B101273846BDE83A
:10386000F0816669761C666113D16068006838B1C2
:10387000502080F31188BFF34F8FBFF36F8FFEE7A7
:103880006068A1686160A060A06A401CA062FFF748
:10389000DFF8206BDFF87080864209D3606800682B
:1038A00080B16068C068C568686886420DD22063D0
:1038B0002068C06A00EB800158F821000128CAD9AD
:1038C0000127C8E74FF0FF30F1E7281DFFF7F8F9AF
:1038D000A86A18B105F11800FFF7F2F9E86AA169C2
:1038E000884200D9A06100EB800108EB8100291D0E
:1038F000FFF736FAE86A2168C96A8842CED3012701
:10390000CCE70000140000207402002070B5040011
:103910004FF0000133D01B4D2868844207D050205F
:1039200080F31188BFF34F8FBFF36F8FFEE7206DD9
:1039300038B1401E2065E36CE26A9A421FD040B164
:103940001DE0502080F31188BFF34F8FBFF36F8FBE
:10395000FEE7201DFFF7B4F9E06CE062C0F138002B
:10396000A061E06AA969884200D9A861064900EB14
:10397000800001EB8000211DFFF7F2F901210846CC
:1039800070BD0000140000207402002070B5C068F3
:10399000C46854B104F118000646FFF791F9144DBC
:1039A000A86B50B13146134815E0502080F31188C0
:1039B000BFF34F8FBFF36F8FFEE7201DFFF780F936
:1039C000E06AA969884200D9A8610B4900EB800030
:1039D00001EB8000211DFFF7C3F9E06A2968C96A7D
:1039E000884202D90120686270BD002070BD0000CD
:1039F00014000020FC060020740200202DE9F0478E
:103A00002C4D00242746A86B38B1FFF7B5F9A86BF9
:103A1000401EA863A86B40B146E0502080F3118897
:103A2000BFF34F8FBFF36F8FFEE72969224E01204E
:103A3000D1B3A6F5916980463068E0B1F068C468FA
:103A400004F11800FFF73CF9201DFFF739F9E06A8F
:103A5000A969884200D9A86100EB800109EB8100C7
:103A6000211DFFF77DF9E06A2968C96A8842E3D31E
:103A7000C5F82480E0E70CB1FEF7EAFF2C6A4CB1F0
:103A80004FEA0806FFF7DEFE00B16E62641EF9D150
:103A900000202862686A38B10849012738070860A1
:103AA000BFF34F8FBFF36F8FFFF786F93846BDE83E
:103AB000F087000014000020FC06002004ED00E068
:103AC00010B586B0FEF746FD114CA068B8B10020D5
:103AD0000390049005AA04A903A8FFF70FF9DDE9F4
:103AE000032102208DE8070000230AA10B48059A54
:103AF000FFF769FEE06010B106B0012010BD502054
:103B000080F31188BFF34F8FBFF36F8FFEE7000084
:103B100050000020546D7220537663002D2B000856
:103B20002DE9FF411E46134602000A9D4FF000009A
:103B300016D0144CA768002F0FD0CDE900130292C5
:103B4000062917DAFFF76AFE02284FF000030FD0AC
:103B500000226946A068FFF725FC04B0BDE8F081AB
:103B6000502080F31188BFF34F8FBFF36F8FFEE7B4
:103B70002A46EEE70023324669463846FFF7C2FC84
:103B8000EBE7000050000020CC3B000800000000E4
:103B9000000000000000000000000000000800001D
:103BA00018000000000000000000000000061016D1
:103BB00000061016000000000000000001020304CF
:103BC000060708090000000001020304496E697439
:103BD0005F5461736B000000F83B00080000002098
:103BE000A000000048220008983C0008A000002027
:103BF000C84E00005822000800000000010000002C
:103C000010000000000000000024F400000000008C
:103C100000000000000000000000000000000000A4
:103C20000000000000000000000000000000000094
:103C30000000000000000000000000000000000084
:103C40000000000000000000000000000000000074
:103C50000000000000000000000000000000000064
:103C60000000000000000000000000000000000054
:103C7000000000000000000000000000AAAAAAAA9C
:103C80000000000000000000000000000000000034
:083C900000000000000000002C
:040000050800018965
:00000001FF
